{
  "contractName": "PrescriptionContract",
  "abi": [
    {
      "inputs": [],
      "payable": false,
      "stateMutability": "nonpayable",
      "type": "constructor"
    },
    {
      "constant": true,
      "inputs": [
        {
          "internalType": "address",
          "name": "",
          "type": "address"
        },
        {
          "internalType": "string",
          "name": "",
          "type": "string"
        }
      ],
      "name": "prescriptions",
      "outputs": [
        {
          "internalType": "address",
          "name": "issuer",
          "type": "address"
        },
        {
          "internalType": "string",
          "name": "id",
          "type": "string"
        },
        {
          "internalType": "uint256",
          "name": "value",
          "type": "uint256"
        }
      ],
      "payable": false,
      "stateMutability": "view",
      "type": "function"
    },
    {
      "constant": false,
      "inputs": [
        {
          "internalType": "address",
          "name": "_to",
          "type": "address"
        },
        {
          "internalType": "string",
          "name": "_id",
          "type": "string"
        }
      ],
      "name": "create",
      "outputs": [],
      "payable": false,
      "stateMutability": "nonpayable",
      "type": "function"
    },
    {
      "constant": true,
      "inputs": [
        {
          "internalType": "string",
          "name": "_id",
          "type": "string"
        }
      ],
      "name": "check",
      "outputs": [
        {
          "internalType": "uint256",
          "name": "",
          "type": "uint256"
        }
      ],
      "payable": false,
      "stateMutability": "view",
      "type": "function"
    },
    {
      "constant": false,
      "inputs": [
        {
          "internalType": "string",
          "name": "_id",
          "type": "string"
        }
      ],
      "name": "spend",
      "outputs": [],
      "payable": false,
      "stateMutability": "nonpayable",
      "type": "function"
    }
  ],
  "bytecode": "0x608060405234801561001057600080fd5b50336000806101000a81548173ffffffffffffffffffffffffffffffffffffffff021916908373ffffffffffffffffffffffffffffffffffffffff160217905550610b31806100606000396000f3fe608060405234801561001057600080fd5b506004361061004b5760003560e01c80623975a214610050578063a15ab08d146101de578063b6f921ad146102b9578063d83c2f6114610388575b600080fd5b6101296004803603604081101561006657600080fd5b81019080803573ffffffffffffffffffffffffffffffffffffffff169060200190929190803590602001906401000000008111156100a357600080fd5b8201836020820111156100b557600080fd5b803590602001918460018302840111640100000000831117156100d757600080fd5b91908080601f016020809104026020016040519081016040528093929190818152602001838380828437600081840152601f19601f820116905080830192505050505050509192919290505050610443565b604051808473ffffffffffffffffffffffffffffffffffffffff1673ffffffffffffffffffffffffffffffffffffffff16815260200180602001838152602001828103825284818151815260200191508051906020019080838360005b838110156101a1578082015181840152602081019050610186565b50505050905090810190601f1680156101ce5780820380516001836020036101000a031916815260200191505b5094505050505060405180910390f35b6102b7600480360360408110156101f457600080fd5b81019080803573ffffffffffffffffffffffffffffffffffffffff1690602001909291908035906020019064010000000081111561023157600080fd5b82018360208201111561024357600080fd5b8035906020019184600183028401116401000000008311171561026557600080fd5b91908080601f016020809104026020016040519081016040528093929190818152602001838380828437600081840152601f19601f820116905080830192505050505050509192919290505050610548565b005b610372600480360360208110156102cf57600080fd5b81019080803590602001906401000000008111156102ec57600080fd5b8201836020820111156102fe57600080fd5b8035906020019184600183028401116401000000008311171561032057600080fd5b91908080601f016020809104026020016040519081016040528093929190818152602001838380828437600081840152601f19601f820116905080830192505050505050509192919290505050610757565b6040518082815260200191505060405180910390f35b6104416004803603602081101561039e57600080fd5b81019080803590602001906401000000008111156103bb57600080fd5b8201836020820111156103cd57600080fd5b803590602001918460018302840111640100000000831117156103ef57600080fd5b91908080601f016020809104026020016040519081016040528093929190818152602001838380828437600081840152601f19601f82011690508083019250505050505050919291929050505061087c565b005b600160205281600052604060002081805160208101820180518482526020830160208501208183528095505050505050600091509150508060000160009054906101000a900473ffffffffffffffffffffffffffffffffffffffff1690806001018054600181600116156101000203166002900480601f0160208091040260200160405190810160405280929190818152602001828054600181600116156101000203166002900480156105385780601f1061050d57610100808354040283529160200191610538565b820191906000526020600020905b81548152906001019060200180831161051b57829003601f168201915b5050505050908060020154905083565b6000809054906101000a900473ffffffffffffffffffffffffffffffffffffffff1673ffffffffffffffffffffffffffffffffffffffff163373ffffffffffffffffffffffffffffffffffffffff161461060a576040517f08c379a00000000000000000000000000000000000000000000000000000000081526004018080602001828103825260098152602001807f4e6f742061646d696e000000000000000000000000000000000000000000000081525060200191505060405180910390fd5b60405180606001604052803373ffffffffffffffffffffffffffffffffffffffff1681526020018281526020016001815250600160008473ffffffffffffffffffffffffffffffffffffffff1673ffffffffffffffffffffffffffffffffffffffff168152602001908152602001600020826040518082805190602001908083835b602083106106af578051825260208201915060208101905060208303925061068c565b6001836020036101000a038019825116818451168082178552505050505050905001915050908152602001604051809103902060008201518160000160006101000a81548173ffffffffffffffffffffffffffffffffffffffff021916908373ffffffffffffffffffffffffffffffffffffffff1602179055506020820151816001019080519060200190610745929190610a57565b50604082015181600201559050505050565b600060018060003373ffffffffffffffffffffffffffffffffffffffff1673ffffffffffffffffffffffffffffffffffffffff168152602001908152602001600020836040518082805190602001908083835b602083106107cd57805182526020820191506020810190506020830392506107aa565b6001836020036101000a03801982511681845116808217855250505050505090500191505090815260200160405180910390206002015414610877576040517f08c379a00000000000000000000000000000000000000000000000000000000081526004018080602001828103825260158152602001807f5265636569707420616c7265616479207370656e74000000000000000000000081525060200191505060405180910390fd5b919050565b60018060003373ffffffffffffffffffffffffffffffffffffffff1673ffffffffffffffffffffffffffffffffffffffff168152602001908152602001600020826040518082805190602001908083835b602083106108f057805182526020820191506020810190506020830392506108cd565b6001836020036101000a0380198251168184511680821785525050505050509050019150509081526020016040518091039020600201541461099a576040517f08c379a00000000000000000000000000000000000000000000000000000000081526004018080602001828103825260158152602001807f5265636569707420616c7265616479207370656e74000000000000000000000081525060200191505060405180910390fd5b600160003373ffffffffffffffffffffffffffffffffffffffff1673ffffffffffffffffffffffffffffffffffffffff168152602001908152602001600020816040518082805190602001908083835b60208310610a0d57805182526020820191506020810190506020830392506109ea565b6001836020036101000a0380198251168184511680821785525050505050509050019150509081526020016040518091039020600201600081548092919060019003919050555050565b828054600181600116156101000203166002900490600052602060002090601f016020900481019282601f10610a9857805160ff1916838001178555610ac6565b82800160010185558215610ac6579182015b82811115610ac5578251825591602001919060010190610aaa565b5b509050610ad39190610ad7565b5090565b610af991905b80821115610af5576000816000905550600101610add565b5090565b9056fea265627a7a72315820737ca1ab3b5faa68e1cb54a1b67e26de692c575527a0ac6d701a2c07c986befa64736f6c63430005100032",
  "source": "// You could make it iterable by changing the second mapping to an array. But handling arrays is a little more complicated than the way with the second mapping, where unique identifiers are given anyway\r\n// Changed the mapping, so that the owner of the precriptions public key maps to all of his precriptions\r\n//\r\npragma solidity ^0.5.16;\r\n\r\ncontract PrescriptionContract {\r\n    address admin;\r\n    \r\n    struct Prescription {\r\n        address issuer; //a public key \r\n        string id; //the hash or serial number of an off-chain prescription VC, referenced also in the prescription VC\r\n        uint value; //1 = 1 time spendable\r\n    }\r\n    \r\n    constructor() public {\r\n        admin = msg.sender;\r\n    }\r\n    \r\n        //createdBy: bytes32, //the doctor's public key (could be stored on indy as well)\r\n    mapping (address => mapping (string => Prescription)) public prescriptions;\r\n        //event Create(address indexed owner, bytes32 indexed id);\r\n        //event Spend(address indexed from);\r\n    modifier onlyAdmin() {\r\n        require (msg.sender == admin, \"Not admin\");\r\n        _;\r\n    }\r\n    \r\n    function create(address _to, string memory _id) public onlyAdmin() {\r\n        prescriptions[_to][_id] = Prescription({issuer: msg.sender, id: _id, value: 1});\r\n        //emit Create(owner, id);\r\n    }\r\n\r\n    function check(string memory _id) public view returns (uint) {\r\n        require (prescriptions[msg.sender][_id].value == 1, \"Receipt already spent\");\r\n\r\n        //return prescriptions[msg.sender][_id].value;\r\n        //TODO: Returning the value could enable new Use Cases\r\n    }\r\n    \r\n    function spend(string memory _id) public {\r\n        require (prescriptions[msg.sender][_id].value == 1, \"Receipt already spent\");\r\n        \r\n        prescriptions[msg.sender][_id].value--;\r\n        //emit Spend(id);\r\n    }\r\n}\r\n",
  "sourcePath": "C:/Users/willburg/Documents/e-Prescriptions/quorum_client/contracts/Prescription.sol",
  "compiler": {
    "name": "solc",
    "version": "0.5.16+commit.9c3226ce.Emscripten.clang"
  },
  "schemaVersion": "3.2.3",
  "updatedAt": "2021-10-05T14:17:59.449Z",
  "networkType": "quorum",
  "devdoc": {
    "methods": {}
  },
  "userdoc": {
    "methods": {}
  }
}