{
  "contractName": "PrescriptionContract",
  "abi": [
    {
      "inputs": [],
      "payable": false,
      "stateMutability": "nonpayable",
      "type": "constructor"
    },
    {
      "constant": true,
      "inputs": [
        {
          "internalType": "address",
          "name": "",
          "type": "address"
        },
        {
          "internalType": "string",
          "name": "",
          "type": "string"
        }
      ],
      "name": "prescriptions",
      "outputs": [
        {
          "internalType": "address",
          "name": "issuer",
          "type": "address"
        },
        {
          "internalType": "string",
          "name": "id",
          "type": "string"
        },
        {
          "internalType": "uint256",
          "name": "value",
          "type": "uint256"
        }
      ],
      "payable": false,
      "stateMutability": "view",
      "type": "function"
    },
    {
      "constant": false,
      "inputs": [
        {
          "internalType": "address",
          "name": "_to",
          "type": "address"
        },
        {
          "internalType": "string",
          "name": "_id",
          "type": "string"
        }
      ],
      "name": "create",
      "outputs": [],
      "payable": false,
      "stateMutability": "nonpayable",
      "type": "function"
    },
    {
      "constant": false,
      "inputs": [
        {
          "internalType": "string",
          "name": "_id",
          "type": "string"
        }
      ],
      "name": "spend",
      "outputs": [],
      "payable": false,
      "stateMutability": "nonpayable",
      "type": "function"
    }
  ],
  "bytecode": "0x608060405234801561001057600080fd5b50336000806101000a81548173ffffffffffffffffffffffffffffffffffffffff021916908373ffffffffffffffffffffffffffffffffffffffff160217905550610932806100606000396000f3fe608060405234801561001057600080fd5b50600436106100405760003560e01c80623975a214610045578063a15ab08d146101d3578063d83c2f61146102ae575b600080fd5b61011e6004803603604081101561005b57600080fd5b81019080803573ffffffffffffffffffffffffffffffffffffffff1690602001909291908035906020019064010000000081111561009857600080fd5b8201836020820111156100aa57600080fd5b803590602001918460018302840111640100000000831117156100cc57600080fd5b91908080601f016020809104026020016040519081016040528093929190818152602001838380828437600081840152601f19601f820116905080830192505050505050509192919290505050610369565b604051808473ffffffffffffffffffffffffffffffffffffffff1673ffffffffffffffffffffffffffffffffffffffff16815260200180602001838152602001828103825284818151815260200191508051906020019080838360005b8381101561019657808201518184015260208101905061017b565b50505050905090810190601f1680156101c35780820380516001836020036101000a031916815260200191505b5094505050505060405180910390f35b6102ac600480360360408110156101e957600080fd5b81019080803573ffffffffffffffffffffffffffffffffffffffff1690602001909291908035906020019064010000000081111561022657600080fd5b82018360208201111561023857600080fd5b8035906020019184600183028401116401000000008311171561025a57600080fd5b91908080601f016020809104026020016040519081016040528093929190818152602001838380828437600081840152601f19601f82011690508083019250505050505050919291929050505061046e565b005b610367600480360360208110156102c457600080fd5b81019080803590602001906401000000008111156102e157600080fd5b8201836020820111156102f357600080fd5b8035906020019184600183028401116401000000008311171561031557600080fd5b91908080601f016020809104026020016040519081016040528093929190818152602001838380828437600081840152601f19601f82011690508083019250505050505050919291929050505061067d565b005b600160205281600052604060002081805160208101820180518482526020830160208501208183528095505050505050600091509150508060000160009054906101000a900473ffffffffffffffffffffffffffffffffffffffff1690806001018054600181600116156101000203166002900480601f01602080910402602001604051908101604052809291908181526020018280546001816001161561010002031660029004801561045e5780601f106104335761010080835404028352916020019161045e565b820191906000526020600020905b81548152906001019060200180831161044157829003601f168201915b5050505050908060020154905083565b6000809054906101000a900473ffffffffffffffffffffffffffffffffffffffff1673ffffffffffffffffffffffffffffffffffffffff163373ffffffffffffffffffffffffffffffffffffffff1614610530576040517f08c379a00000000000000000000000000000000000000000000000000000000081526004018080602001828103825260098152602001807f4e6f742061646d696e000000000000000000000000000000000000000000000081525060200191505060405180910390fd5b60405180606001604052803373ffffffffffffffffffffffffffffffffffffffff1681526020018281526020016001815250600160008473ffffffffffffffffffffffffffffffffffffffff1673ffffffffffffffffffffffffffffffffffffffff168152602001908152602001600020826040518082805190602001908083835b602083106105d557805182526020820191506020810190506020830392506105b2565b6001836020036101000a038019825116818451168082178552505050505050905001915050908152602001604051809103902060008201518160000160006101000a81548173ffffffffffffffffffffffffffffffffffffffff021916908373ffffffffffffffffffffffffffffffffffffffff160217905550602082015181600101908051906020019061066b929190610858565b50604082015181600201559050505050565b60018060003373ffffffffffffffffffffffffffffffffffffffff1673ffffffffffffffffffffffffffffffffffffffff168152602001908152602001600020826040518082805190602001908083835b602083106106f157805182526020820191506020810190506020830392506106ce565b6001836020036101000a0380198251168184511680821785525050505050509050019150509081526020016040518091039020600201541461079b576040517f08c379a00000000000000000000000000000000000000000000000000000000081526004018080602001828103825260158152602001807f5265636569707420616c7265616479207370656e74000000000000000000000081525060200191505060405180910390fd5b600160003373ffffffffffffffffffffffffffffffffffffffff1673ffffffffffffffffffffffffffffffffffffffff168152602001908152602001600020816040518082805190602001908083835b6020831061080e57805182526020820191506020810190506020830392506107eb565b6001836020036101000a0380198251168184511680821785525050505050509050019150509081526020016040518091039020600201600081548092919060019003919050555050565b828054600181600116156101000203166002900490600052602060002090601f016020900481019282601f1061089957805160ff19168380011785556108c7565b828001600101855582156108c7579182015b828111156108c65782518255916020019190600101906108ab565b5b5090506108d491906108d8565b5090565b6108fa91905b808211156108f65760008160009055506001016108de565b5090565b9056fea265627a7a7231582083fb4cf90fddfda1ef8f4413c57e376dd6478e3b10f2d9923d56c4122096dc7664736f6c63430005100032",
  "source": "// You could make it iterable by changing the second mapping to an array. But handling arrays is a little more complicated than the way with the second mapping, where unique identifiers are given anyway\n// Changed the mapping, so that the owner of the precriptions public key maps to all of his precriptions\n//\npragma solidity ^0.5.16;\n\ncontract PrescriptionContract {\n    address admin;\n    \n    struct Prescription {\n        address issuer; //a public key\n        string id; //the hash or serial number of an off-chain prescription VC, referenced also in the prescription VC\n        uint value; //0 = 0 times spend\n    }\n    \n    constructor() public {\n        admin = msg.sender;\n    }\n    \n        //createdBy: bytes32, //the doctor's public key (could be stored on indy as well)\n    mapping (address => mapping (string => Prescription)) public prescriptions;\n        //event Create(address indexed owner, bytes32 indexed id);\n        //event Spend(address indexed from);\n    modifier onlyAdmin() {\n        require (msg.sender == admin, \"Not admin\");\n        _;\n    }\n    \n    function create(address _to, string memory _id) public onlyAdmin() {\n        prescriptions[_to][_id] = Prescription({issuer: msg.sender, id: _id, value: 1});\n        //emit Create(owner, id);\n    }\n    \n    function spend(string memory _id) public {\n        require (prescriptions[msg.sender][_id].value == 1, \"Receipt already spent\");\n        prescriptions[msg.sender][_id].value--;\n        //emit Spend(id);\n    }\n}\n",
  "sourcePath": "/home/ubuntu/ssi-prescriptions/quorum_client/contracts/Prescription.sol",
  "compiler": {
    "name": "solc",
    "version": "0.5.16+commit.9c3226ce.Emscripten.clang"
  },
  "schemaVersion": "3.2.3",
  "updatedAt": "2021-08-25T13:37:39.450Z",
  "networkType": "quorum",
  "devdoc": {
    "methods": {}
  },
  "userdoc": {
    "methods": {}
  }
}